:0C050800C0F9A4B0999282F880900847D6
:1004C600010E70010D00010F000110010111010163
:0A04D6000C00020A000002080000FA
:0404E1007FF47E0125
:1004E500D3EF9400EE648094804007EF1F70F11EF7
:0304F50080EE2274
:10030A00C2A7C2B0C2B1C2B2C2B3C2B4E975F00ADE
:10031A0084751600F517FDAC167F01120346C2A7B5
:10032A00C2B0C2B1C2B2C2B3C2B4E975F00A84AFF4
:0C033A00F07516008F17AD17AC167F028F
:02034600AB0703
:10034800E4FEED90050893FF30E004D2A08002C2DD
:10035800A0EEC313FEEF13FF30E004D2A18002C267
:10036800A1EEC313FEEF13FF30E004D2A28002C255
:10037800A2EEC313FEEF13FF30E004D2A38002C243
:10038800A3EEC313FEEF13FF30E004D2A48002C231
:10039800A4EEC313FEEF13FF30E004D2A58002C21F
:1003A800A5EEC313EF1330E004D2A68002C2A6BBA9
:1003B8000104D2A7802FBB0204D2B08028BB03045B
:1003C800D2B18021BB0404D2B2801ABB0504D2B3D7
:1003D8008013BB0604D2B4800CC2A7C2B0C2B1C29B
:0C03E800B2C2B3C2B47FE87E030204E599
:06000E00AB0CAD11AF10B8
:060014008B14AA05A907E8
:10001A00E515703FC2A7C2B0C2B1C2B2C2B3C2B480
:10002A00E975F00A84751600F517FDAC167F011202
:10003A000346C2A7C2B0C2B1C2B2C2B3C2B4E97562
:10004A00F00A84AFF07516008F17AD17AC167F0251
:10005A000201C6E5156401702A12030AC2A7C2B0DA
:10006A00C2B1C2B2C2B3C2B47D0A7C007F05120318
:10007A0046C2A7C2B0C2B1C2B2C2B3C2B40D7F06F1
:10008A000201C6E51564037066C2A7C2B0C2B1C256
:10009A00B2C2B3C2B4EA75F00A84751600F517FD48
:1000AA00AC167F03120346C2A7C2B0C2B1C2B2C223
:1000BA00B3C2B4EA75F00A84AFF07516008F17ADB3
:1000CA0017AC167F04120346C2A7C2B0C2B1C2B2AD
:1000DA00C2B3C2B47D0A7C007F05120346C2A7C21E
:1000EA00B0C2B1C2B2C2B3C2B40D7F060201C6E544
:1000FA00156402703FC2A7C2B0C2B1C2B2C2B3C2D3
:10010A00B4EA75F00A84751600F517FDAC167F037C
:10011A00120346C2A7C2B0C2B1C2B2C2B3C2B4EAE3
:10012A0075F00A84AFF07516008F17AD17AC167FFD
:10013A00040201C6E51564047002804212030AC271
:10014A00A7C2B0C2B1C2B2C2B3C2B4EA75F00A84DD
:10015A00751600F517FDAC167F03120346C2A7C237
:10016A00B0C2B1C2B2C2B3C2B4EA75F00A84AFF087
:10017A007516008F17AD17AC167F04120346C2A777
:10018A00C2B0C2B1C2B2C2B3C2B4E51475F00A8435
:10019A00751600F517FDAC167F05120346C2A7C2F5
:1001AA00B0C2B1C2B2C2B3C2B4E51475F00A84AF28
:0F01BA00F07516008F17AD17AC167F06120346AF
:0101C9002213
:1004F800758901758CFC758A18D2A9D2AFD28C2265
:03000B000204806C
:10048000C0E0C0D030A93A050BE50B7002050AB4F4
:10049000E829E50AB40324050C750A00750B00E58C
:1004A0000CB43C17050F750C00E50FB43C0D050DA1
:1004B000750F00E50DB41803750D00758CFC758A79
:0604C00018D0D0D0E0329C
:1001CA001204F820B50E1204E130B5FD0509E5095F
:1001DA0070020508E50945087006751505020275DD
:1001EA00E50964014508702720B6101204E130B60B
:1001FA00FD050DE50DB41803E4F50D20B70C120446
:10020A00E130B7FDD50D03750D17E4F515805CE5F2
:10021A000964024508702720B6101204E130B6FDC1
:10022A00050FE50FB43C03E4F50F20B70C1204E107
:10023A0030B7FDD50F03750F3B751502802DE50903
:10024A0064034508703120B6101204E130B6FD058A
:10025A000CE50CB43C03E4F50C20B70C1204E130B5
:10026A00B7FDD50C03750C3B751504AB0CAD0FAF80
:10027A000D1200140202EDE50964044508702D759B
:10028A00150112000E20B6101204E130B6FD051059
:10029A00E510B41803E4F51020B7481204E130B7AA
:1002AA00FD1510E510703C7510178037E5096405D7
:1002BA004508702A75150312000E20B6101204E1C3
:1002CA0030B6FD0511E511B43C03E4F51120B7136E
:1002DA001204E130B7FDD5110A75113B8005E4F52A
:1002EA0008F509E510B50D09E511B50F04D293809B
:1002FA0002C2933092030201CD0511C2930201CDCD
:030000000203F404
:0C03F400787FE4F6D8FD75811702043B09
:100400000201CAE493A3F8E493A34003F68001F247
:1004100008DFF48029E493A3F85407240CC8C333FD
:10042000C4540F4420C8834004F456800146F6DFCC
:10043000E4800B01020408102040809004C6E47E92
:10044000019360BCA3FF543F30E509541FFEE493C1
:10045000A360010ECF54C025E060A840B8E493A388
:10046000FAE493A3F8E493A3C8C582C8CAC583CAB3
:10047000F0A3C8C582C8CAC583CADFE9DEE780BE6B
:0104E000001B
:00000001FF
